{
  "_format": "hh-sol-artifact-1",
  "contractName": "LSP0ERC725Account",
  "sourceName": "contracts/LSP0ERC725Account/LSP0ERC725Account.sol",
  "abi": [
    {
      "inputs": [
        {
          "internalType": "address",
          "name": "initialOwner",
          "type": "address"
        }
      ],
      "stateMutability": "payable",
      "type": "constructor"
    },
    {
      "inputs": [],
      "name": "ERC725X_ContractDeploymentFailed",
      "type": "error"
    },
    {
      "inputs": [],
      "name": "ERC725X_CreateOperationsRequireEmptyRecipientAddress",
      "type": "error"
    },
    {
      "inputs": [],
      "name": "ERC725X_ExecuteParametersEmptyArray",
      "type": "error"
    },
    {
      "inputs": [],
      "name": "ERC725X_ExecuteParametersLengthMismatch",
      "type": "error"
    },
    {
      "inputs": [
        {
          "internalType": "uint256",
          "name": "balance",
          "type": "uint256"
        },
        {
          "internalType": "uint256",
          "name": "value",
          "type": "uint256"
        }
      ],
      "name": "ERC725X_InsufficientBalance",
      "type": "error"
    },
    {
      "inputs": [],
      "name": "ERC725X_MsgValueDisallowedInDelegateCall",
      "type": "error"
    },
    {
      "inputs": [],
      "name": "ERC725X_MsgValueDisallowedInStaticCall",
      "type": "error"
    },
    {
      "inputs": [],
      "name": "ERC725X_NoContractBytecodeProvided",
      "type": "error"
    },
    {
      "inputs": [
        {
          "internalType": "uint256",
          "name": "operationTypeProvided",
          "type": "uint256"
        }
      ],
      "name": "ERC725X_UnknownOperationType",
      "type": "error"
    },
    {
      "inputs": [],
      "name": "ERC725Y_DataKeysValuesEmptyArray",
      "type": "error"
    },
    {
      "inputs": [],
      "name": "ERC725Y_DataKeysValuesLengthMismatch",
      "type": "error"
    },
    {
      "inputs": [
        {
          "internalType": "address",
          "name": "caller",
          "type": "address"
        }
      ],
      "name": "LSP14CallerNotPendingOwner",
      "type": "error"
    },
    {
      "inputs": [],
      "name": "LSP14CannotTransferOwnershipToSelf",
      "type": "error"
    },
    {
      "inputs": [],
      "name": "LSP14MustAcceptOwnershipInSeparateTransaction",
      "type": "error"
    },
    {
      "inputs": [
        {
          "internalType": "uint256",
          "name": "renounceOwnershipStart",
          "type": "uint256"
        },
        {
          "internalType": "uint256",
          "name": "renounceOwnershipEnd",
          "type": "uint256"
        }
      ],
      "name": "LSP14NotInRenounceOwnershipInterval",
      "type": "error"
    },
    {
      "inputs": [
        {
          "internalType": "bool",
          "name": "postCall",
          "type": "bool"
        },
        {
          "internalType": "bytes4",
          "name": "returnedStatus",
          "type": "bytes4"
        }
      ],
      "name": "LSP20CallVerificationFailed",
      "type": "error"
    },
    {
      "inputs": [
        {
          "internalType": "bool",
          "name": "postCall",
          "type": "bool"
        }
      ],
      "name": "LSP20CallingVerifierFailed",
      "type": "error"
    },
    {
      "inputs": [
        {
          "internalType": "address",
          "name": "logicVerifier",
          "type": "address"
        }
      ],
      "name": "LSP20EOACannotVerifyCall",
      "type": "error"
    },
    {
      "inputs": [
        {
          "internalType": "bytes4",
          "name": "functionSelector",
          "type": "bytes4"
        }
      ],
      "name": "NoExtensionFoundForFunctionSelector",
      "type": "error"
    },
    {
      "anonymous": false,
      "inputs": [
        {
          "indexed": true,
          "internalType": "uint256",
          "name": "operationType",
          "type": "uint256"
        },
        {
          "indexed": true,
          "internalType": "address",
          "name": "contractAddress",
          "type": "address"
        },
        {
          "indexed": true,
          "internalType": "uint256",
          "name": "value",
          "type": "uint256"
        },
        {
          "indexed": false,
          "internalType": "bytes32",
          "name": "salt",
          "type": "bytes32"
        }
      ],
      "name": "ContractCreated",
      "type": "event"
    },
    {
      "anonymous": false,
      "inputs": [
        {
          "indexed": true,
          "internalType": "bytes32",
          "name": "dataKey",
          "type": "bytes32"
        },
        {
          "indexed": false,
          "internalType": "bytes",
          "name": "dataValue",
          "type": "bytes"
        }
      ],
      "name": "DataChanged",
      "type": "event"
    },
    {
      "anonymous": false,
      "inputs": [
        {
          "indexed": true,
          "internalType": "uint256",
          "name": "operationType",
          "type": "uint256"
        },
        {
          "indexed": true,
          "internalType": "address",
          "name": "target",
          "type": "address"
        },
        {
          "indexed": true,
          "internalType": "uint256",
          "name": "value",
          "type": "uint256"
        },
        {
          "indexed": false,
          "internalType": "bytes4",
          "name": "selector",
          "type": "bytes4"
        }
      ],
      "name": "Executed",
      "type": "event"
    },
    {
      "anonymous": false,
      "inputs": [],
      "name": "OwnershipRenounced",
      "type": "event"
    },
    {
      "anonymous": false,
      "inputs": [
        {
          "indexed": true,
          "internalType": "address",
          "name": "previousOwner",
          "type": "address"
        },
        {
          "indexed": true,
          "internalType": "address",
          "name": "newOwner",
          "type": "address"
        }
      ],
      "name": "OwnershipTransferStarted",
      "type": "event"
    },
    {
      "anonymous": false,
      "inputs": [
        {
          "indexed": true,
          "internalType": "address",
          "name": "previousOwner",
          "type": "address"
        },
        {
          "indexed": true,
          "internalType": "address",
          "name": "newOwner",
          "type": "address"
        }
      ],
      "name": "OwnershipTransferred",
      "type": "event"
    },
    {
      "anonymous": false,
      "inputs": [],
      "name": "RenounceOwnershipStarted",
      "type": "event"
    },
    {
      "anonymous": false,
      "inputs": [
        {
          "indexed": true,
          "internalType": "address",
          "name": "from",
          "type": "address"
        },
        {
          "indexed": true,
          "internalType": "uint256",
          "name": "value",
          "type": "uint256"
        },
        {
          "indexed": true,
          "internalType": "bytes32",
          "name": "typeId",
          "type": "bytes32"
        },
        {
          "indexed": false,
          "internalType": "bytes",
          "name": "receivedData",
          "type": "bytes"
        },
        {
          "indexed": false,
          "internalType": "bytes",
          "name": "returnedValue",
          "type": "bytes"
        }
      ],
      "name": "UniversalReceiver",
      "type": "event"
    },
    {
      "stateMutability": "payable",
      "type": "fallback"
    },
    {
      "inputs": [],
      "name": "RENOUNCE_OWNERSHIP_CONFIRMATION_DELAY",
      "outputs": [
        {
          "internalType": "uint256",
          "name": "",
          "type": "uint256"
        }
      ],
      "stateMutability": "view",
      "type": "function"
    },
    {
      "inputs": [],
      "name": "RENOUNCE_OWNERSHIP_CONFIRMATION_PERIOD",
      "outputs": [
        {
          "internalType": "uint256",
          "name": "",
          "type": "uint256"
        }
      ],
      "stateMutability": "view",
      "type": "function"
    },
    {
      "inputs": [],
      "name": "VERSION",
      "outputs": [
        {
          "internalType": "string",
          "name": "",
          "type": "string"
        }
      ],
      "stateMutability": "view",
      "type": "function"
    },
    {
      "inputs": [],
      "name": "acceptOwnership",
      "outputs": [],
      "stateMutability": "nonpayable",
      "type": "function"
    },
    {
      "inputs": [
        {
          "internalType": "bytes[]",
          "name": "data",
          "type": "bytes[]"
        }
      ],
      "name": "batchCalls",
      "outputs": [
        {
          "internalType": "bytes[]",
          "name": "results",
          "type": "bytes[]"
        }
      ],
      "stateMutability": "nonpayable",
      "type": "function"
    },
    {
      "inputs": [
        {
          "internalType": "uint256",
          "name": "operationType",
          "type": "uint256"
        },
        {
          "internalType": "address",
          "name": "target",
          "type": "address"
        },
        {
          "internalType": "uint256",
          "name": "value",
          "type": "uint256"
        },
        {
          "internalType": "bytes",
          "name": "data",
          "type": "bytes"
        }
      ],
      "name": "execute",
      "outputs": [
        {
          "internalType": "bytes",
          "name": "",
          "type": "bytes"
        }
      ],
      "stateMutability": "payable",
      "type": "function"
    },
    {
      "inputs": [
        {
          "internalType": "uint256[]",
          "name": "operationsType",
          "type": "uint256[]"
        },
        {
          "internalType": "address[]",
          "name": "targets",
          "type": "address[]"
        },
        {
          "internalType": "uint256[]",
          "name": "values",
          "type": "uint256[]"
        },
        {
          "internalType": "bytes[]",
          "name": "datas",
          "type": "bytes[]"
        }
      ],
      "name": "executeBatch",
      "outputs": [
        {
          "internalType": "bytes[]",
          "name": "",
          "type": "bytes[]"
        }
      ],
      "stateMutability": "payable",
      "type": "function"
    },
    {
      "inputs": [
        {
          "internalType": "bytes32",
          "name": "dataKey",
          "type": "bytes32"
        }
      ],
      "name": "getData",
      "outputs": [
        {
          "internalType": "bytes",
          "name": "dataValue",
          "type": "bytes"
        }
      ],
      "stateMutability": "view",
      "type": "function"
    },
    {
      "inputs": [
        {
          "internalType": "bytes32[]",
          "name": "dataKeys",
          "type": "bytes32[]"
        }
      ],
      "name": "getDataBatch",
      "outputs": [
        {
          "internalType": "bytes[]",
          "name": "dataValues",
          "type": "bytes[]"
        }
      ],
      "stateMutability": "view",
      "type": "function"
    },
    {
      "inputs": [
        {
          "internalType": "bytes32",
          "name": "dataHash",
          "type": "bytes32"
        },
        {
          "internalType": "bytes",
          "name": "signature",
          "type": "bytes"
        }
      ],
      "name": "isValidSignature",
      "outputs": [
        {
          "internalType": "bytes4",
          "name": "returnedStatus",
          "type": "bytes4"
        }
      ],
      "stateMutability": "view",
      "type": "function"
    },
    {
      "inputs": [],
      "name": "owner",
      "outputs": [
        {
          "internalType": "address",
          "name": "",
          "type": "address"
        }
      ],
      "stateMutability": "view",
      "type": "function"
    },
    {
      "inputs": [],
      "name": "pendingOwner",
      "outputs": [
        {
          "internalType": "address",
          "name": "",
          "type": "address"
        }
      ],
      "stateMutability": "view",
      "type": "function"
    },
    {
      "inputs": [],
      "name": "renounceOwnership",
      "outputs": [],
      "stateMutability": "nonpayable",
      "type": "function"
    },
    {
      "inputs": [
        {
          "internalType": "bytes32",
          "name": "dataKey",
          "type": "bytes32"
        },
        {
          "internalType": "bytes",
          "name": "dataValue",
          "type": "bytes"
        }
      ],
      "name": "setData",
      "outputs": [],
      "stateMutability": "payable",
      "type": "function"
    },
    {
      "inputs": [
        {
          "internalType": "bytes32[]",
          "name": "dataKeys",
          "type": "bytes32[]"
        },
        {
          "internalType": "bytes[]",
          "name": "dataValues",
          "type": "bytes[]"
        }
      ],
      "name": "setDataBatch",
      "outputs": [],
      "stateMutability": "payable",
      "type": "function"
    },
    {
      "inputs": [
        {
          "internalType": "bytes4",
          "name": "interfaceId",
          "type": "bytes4"
        }
      ],
      "name": "supportsInterface",
      "outputs": [
        {
          "internalType": "bool",
          "name": "",
          "type": "bool"
        }
      ],
      "stateMutability": "view",
      "type": "function"
    },
    {
      "inputs": [
        {
          "internalType": "address",
          "name": "pendingNewOwner",
          "type": "address"
        }
      ],
      "name": "transferOwnership",
      "outputs": [],
      "stateMutability": "nonpayable",
      "type": "function"
    },
    {
      "inputs": [
        {
          "internalType": "bytes32",
          "name": "typeId",
          "type": "bytes32"
        },
        {
          "internalType": "bytes",
          "name": "receivedData",
          "type": "bytes"
        }
      ],
      "name": "universalReceiver",
      "outputs": [
        {
          "internalType": "bytes",
          "name": "returnedValues",
          "type": "bytes"
        }
      ],
      "stateMutability": "payable",
      "type": "function"
    },
    {
      "stateMutability": "payable",
      "type": "receive"
    }
  ],
  "bytecode": "0x60806040526040516200391738038062003917833981016040819052620000269162000138565b3415620000ad577f9c4705229491d365fb5434052e12a386d6771d976bea61070a8c694e8affea3d60001b34336001600160a01b03167f9c3ba68eb5742b8e3961aea0afc7371a71bf433c8a67a831803b64c064a178c2604051620000a4906040808252600090820181905260606020830181905282015260800190565b60405180910390a45b620000c381620000ca60201b620017051760201c565b506200016a565b6000546001600160a01b038281169116146200013557600080546040516001600160a01b03808516939216917f8be0079c531659141344cd1fd0a4f28419497f9722a3daafe3b4186f6b6457e091a3600080546001600160a01b0319166001600160a01b0383161790555b50565b6000602082840312156200014b57600080fd5b81516001600160a01b03811681146200016357600080fd5b9392505050565b61379d806200017a6000396000f3fe60806040526004361061012d5760003560e01c806379ba5097116100a5578063dedff9c611610074578063ead3fbdf11610059578063ead3fbdf1461021e578063f2fde38b14610402578063ffa1ad741461042257610178565b8063dedff9c6146103c4578063e30c3978146103e457610178565b806379ba5097146103575780637f23690c1461036c5780638da5cb5b1461037f57806397902421146103b157610178565b806344c028fe116100fc5780636963d438116100e15780636963d4381461030f5780636bb56a141461032f578063715018a61461034257610178565b806344c028fe146102cf57806354f6127f146102ef57610178565b806301bfba611461021e57806301ffc9a7146102465780631626ba7e1461027657806331858452146102af57610178565b36610178573415610176576101747f9c4705229491d365fb5434052e12a386d6771d976bea61070a8c694e8affea3d60001b6040518060200160405280600081525061046b565b505b005b600036606060048210156102065734156101f1576101ef7f9c4705229491d365fb5434052e12a386d6771d976bea61070a8c694e8affea3d60001b84848080601f01602080910402602001604051908101604052809392919081815260200183838082843760009201919091525061046b92505050565b505b50604080516020810190915260008152610213565b6102108383610741565b90505b915050805190602001f35b34801561022a57600080fd5b5061023360c881565b6040519081526020015b60405180910390f35b34801561025257600080fd5b50610266610261366004612cfb565b61091d565b604051901515815260200161023d565b34801561028257600080fd5b50610296610291366004612ddd565b610a08565b6040516001600160e01b0319909116815260200161023d565b6102c26102bd366004612f45565b610bcf565b60405161023d919061309d565b6102e26102dd3660046130ff565b610cdb565b60405161023d9190613154565b3480156102fb57600080fd5b506102e261030a366004613167565b610dbe565b34801561031b57600080fd5b506102c261032a366004613180565b610dc9565b6102e261033d366004612ddd565b61046b565b34801561034e57600080fd5b50610176610f25565b34801561036357600080fd5b50610176611072565b61017661037a366004612ddd565b6111f8565b34801561038b57600080fd5b506000546001600160a01b03165b6040516001600160a01b03909116815260200161023d565b6101766103bf3660046131f5565b6112db565b3480156103d057600080fd5b506102c26103df36600461324f565b6114ae565b3480156103f057600080fd5b506003546001600160a01b0316610399565b34801561040e57600080fd5b5061017661041d366004613284565b611559565b34801561042e57600080fd5b506102e26040518060400160405280600681526020017f302e31322e31000000000000000000000000000000000000000000000000000081525081565b6060341580159061049c57507f9c4705229491d365fb5434052e12a386d6771d976bea61070a8c694e8affea3d8314155b15610507576105057f9c4705229491d365fb5434052e12a386d6771d976bea61070a8c694e8affea3d60001b6000368080601f01602080910402602001604051908101604052809392919081815260200183838082843760009201919091525061046b92505050565b505b60006105327f0cfc51aec37c55a4d0b1a65c6255c4bf2fbdf6277f3cc0730c45b828b6db8b47611773565b9050606060148251106105e357600061054a8361329f565b60601c905061056081635122dded60e11b611815565b156105e157604051635122dded60e11b81526001600160a01b0382169063a245bbda9061059790339034908b908b906004016132db565b6000604051808303816000875af11580156105b6573d6000803e3d6000fd5b505050506040513d6000823e601f3d908101601f191682016040526105de9190810190613309565b91505b505b600061060f7f0cfc51aec37c55a4d0b100000000000000000000000000000000000000000000876118b3565b9050600061061c82611773565b9050606060148251106106cd5760006106348361329f565b60601c905061064a81635122dded60e11b611815565b156106cb57604051635122dded60e11b81526001600160a01b0382169063a245bbda9061068190339034908e908e906004016132db565b6000604051808303816000875af11580156106a0573d6000803e3d6000fd5b505050506040513d6000823e601f3d908101601f191682016040526106c89190810190613309565b91505b505b83816040516020016106e0929190613377565b60405160208183030381529060405295508734336001600160a01b03167f9c3ba68eb5742b8e3961aea0afc7371a71bf433c8a67a831803b64c064a178c28a8a60405161072e929190613377565b60405180910390a4505050505092915050565b606060008061075b6000356001600160e01b03191661191c565b915091503460001415801561076e575080155b156107d8576107d67f9c4705229491d365fb5434052e12a386d6771d976bea61070a8c694e8affea3d60001b86868080601f01602080910402602001604051908101604052809392919081815260200183838082843760009201919091525061046b92505050565b505b6000356001600160e01b0319161580156107f957506001600160a01b038216155b15610817576040518060200160405280600081525092505050610917565b6001600160a01b03821661086a576040517fbb370b2b0000000000000000000000000000000000000000000000000000000081526001600160e01b03196000351660048201526024015b60405180910390fd5b600080836001600160a01b031683610883576000610885565b345b8888333460405160200161089c949392919061339c565b60408051601f19818403018152908290526108b6916133cc565b60006040518083038185875af1925050503d80600081146108f3576040519150601f19603f3d011682016040523d82523d6000602084013e6108f8565b606091505b5091509150811561090e57935061091792505050565b80518060208301fd5b92915050565b60006001600160e01b03198216630b135d3f60e11b148061096757506001600160e01b031982167f24871b3d00000000000000000000000000000000000000000000000000000000145b8061098257506001600160e01b03198216631aed5a8560e21b145b806109b657506001600160e01b031982167f94be599900000000000000000000000000000000000000000000000000000000145b806109ea57506001600160e01b031982167f1a0eb6a500000000000000000000000000000000000000000000000000000000145b806109f957506109f982611a13565b80610917575061091782611a51565b600080610a1d6000546001600160a01b031690565b90506001600160a01b0381163b15610b4f57600080826001600160a01b0316631626ba7e60e01b8787604051602401610a579291906133e8565b60408051601f198184030181529181526020820180517bffffffffffffffffffffffffffffffffffffffffffffffffffffffff166001600160e01b0319909416939093179092529051610aaa91906133cc565b600060405180830381855afa9150503d8060008114610ae5576040519150601f19603f3d011682016040523d82523d6000602084013e610aea565b606091505b50915091506000828015610aff575081516020145b8015610b2657508151630b135d3f60e11b90610b249084016020908101908501613401565b145b905080610b3b576001600160e01b0319610b44565b630b135d3f60e11b5b945050505050610917565b600080610b5c8686611a8f565b90925090506000816004811115610b7557610b7561341a565b14610b8e57506001600160e01b03199250610917915050565b826001600160a01b0316826001600160a01b031614610bb5576001600160e01b0319610bbe565b630b135d3f60e11b5b9350505050610917565b5092915050565b60603415610c5a576040516001600160e01b03196000351660208201527f9c4705229491d365fb5434052e12a386d6771d976bea61070a8c694e8affea3d90349033907f9c3ba68eb5742b8e3961aea0afc7371a71bf433c8a67a831803b64c064a178c29060240160408051601f1981840301815290829052610c5191613430565b60405180910390a45b6000546001600160a01b031633819003610c8257610c7a86868686611ad4565b915050610cd3565b6000610c8d82611c64565b90506000610c9d88888888611ad4565b90508115610cce57610cce8382604051602001610cba919061309d565b604051602081830303815290604052611e30565b925050505b949350505050565b60603415610d66576040516001600160e01b03196000351660208201527f9c4705229491d365fb5434052e12a386d6771d976bea61070a8c694e8affea3d90349033907f9c3ba68eb5742b8e3961aea0afc7371a71bf433c8a67a831803b64c064a178c29060240160408051601f1981840301815290829052610d5d91613430565b60405180910390a45b6000546001600160a01b031633819003610d8657610c7a86868686611f66565b6000610d9182611c64565b90506000610da188888888611f66565b90508115610cce57610cce8382604051602001610cba9190613154565b606061091782611773565b60608167ffffffffffffffff811115610de457610de4612d18565b604051908082528060200260200182016040528015610e1757816020015b6060815260200190600190039081610e025790505b50905060005b82811015610bc85760008030868685818110610e3b57610e3b61345a565b9050602002810190610e4d9190613470565b604051610e5b9291906134b7565b600060405180830381855af49150503d8060008114610e96576040519150601f19603f3d011682016040523d82523d6000602084013e610e9b565b606091505b509150915081610efd57805115610eb55780518082602001fd5b60405162461bcd60e51b815260206004820152601960248201527f4c5350303a20626174636843616c6c73207265766572746564000000000000006044820152606401610861565b80848481518110610f1057610f1061345a565b60209081029190910101525050600101610e1d565b6000546001600160a01b031633819003610fc8576000546001600160a01b0316610f4d6120bc565b6000546001600160a01b0316610fc457604080516001600160a01b0384166020820152600091810191909152610fc4907fa4e59c931d14f7c8a7a35027f92ee40b5f2886b9fdcdb78f30bc5ecce5a2f814906060015b60408051601f198184030181529190526001600160a01b03841691906121c8565b5050565b6000610fd382611c64565b90506000610fe96000546001600160a01b031690565b9050610ff36120bc565b6000546001600160a01b031661104d57604080516001600160a01b038516602082015260009181019190915261104d907fa4e59c931d14f7c8a7a35027f92ee40b5f2886b9fdcdb78f30bc5ecce5a2f81490606001610fa3565b811561106c5761106c8360405180602001604052806000815250611e30565b50505b50565b600354600160a01b900460ff16156110b6576040517f5758dd0700000000000000000000000000000000000000000000000000000000815260040160405180910390fd5b600080546003546001600160a01b0391821692911690338214611101576110dc82611c64565b90506110e782611705565b600380546001600160a01b03191690556000600255611109565b61110961225c565b604080516001600160a01b038086166020830152841691810191909152611171907fa4e59c931d14f7c8a7a35027f92ee40b5f2886b9fdcdb78f30bc5ecce5a2f814906060015b60408051601f198184030181529190526001600160a01b03861691906121c8565b604080516001600160a01b0380861660208301528416918101919091526111d9907fceca317f109c43507871523e82dc2a3cc64dfa18f12da0b6db14f6e23f995538906060015b60408051601f198184030181529190526001600160a01b03851691906121c8565b801561106c5761106c8260405180602001604052806000815250611e30565b3415611281576040516001600160e01b03196000351660208201527f9c4705229491d365fb5434052e12a386d6771d976bea61070a8c694e8affea3d90349033907f9c3ba68eb5742b8e3961aea0afc7371a71bf433c8a67a831803b64c064a178c29060240160408051601f198184030181529082905261127891613430565b60405180910390a45b6000546001600160a01b03163381900361129f5761106c83836122c2565b60006112aa82611c64565b90506112b684846122c2565b80156112d5576112d58260405180602001604052806000815250611e30565b50505050565b3415611364576040516001600160e01b03196000351660208201527f9c4705229491d365fb5434052e12a386d6771d976bea61070a8c694e8affea3d90349033907f9c3ba68eb5742b8e3961aea0afc7371a71bf433c8a67a831803b64c064a178c29060240160408051601f198184030181529082905261135b91613430565b60405180910390a45b805182511461139f576040517f3bcc897900000000000000000000000000000000000000000000000000000000815260040160405180910390fd5b81516000036113da576040517f97da5f9500000000000000000000000000000000000000000000000000000000815260040160405180910390fd5b6000546001600160a01b03163381900361143e5760005b83518110156112d55761143684828151811061140f5761140f61345a565b60200260200101518483815181106114295761142961345a565b60200260200101516122c2565b6001016113f1565b600061144982611c64565b905060005b845181101561148e5761148685828151811061146c5761146c61345a565b60200260200101518583815181106114295761142961345a565b60010161144e565b5080156112d5576112d58260405180602001604052806000815250611e30565b6060815167ffffffffffffffff8111156114ca576114ca612d18565b6040519080825280602002602001820160405280156114fd57816020015b60608152602001906001900390816114e85790505b50905060005b82518110156115535761152e8382815181106115215761152161345a565b6020026020010151611773565b8282815181106115405761154061345a565b6020908102919091010152600101611503565b50919050565b6000546001600160a01b031633819003611625576003805460ff60a01b1916600160a01b17905561158982612336565b816001600160a01b0316816001600160a01b03167f38d16b8cac22d99fc7c124b9cd0de2d3fa1faef420bfe791d8c362d765e2270060405160405180910390a3604080516001600160a01b038084166020830152841691810191909152611614907fe17117c9d2665d1dbeb479ed8058bbebde3c50ac50e2e65619f60006caac6926906060016111b8565b6003805460ff60a01b191690555050565b600061163082611c64565b6003805460ff60a01b1916600160a01b179055905061164e83612336565b826001600160a01b0316826001600160a01b03167f38d16b8cac22d99fc7c124b9cd0de2d3fa1faef420bfe791d8c362d765e2270060405160405180910390a3604080516001600160a01b0380851660208301528516918101919091526116d9907fe17117c9d2665d1dbeb479ed8058bbebde3c50ac50e2e65619f60006caac692690606001611150565b6003805460ff60a01b19169055801561106c5761106c8260405180602001604052806000815250611e30565b6000546001600160a01b0382811691161461106f57600080546040516001600160a01b03808516939216917f8be0079c531659141344cd1fd0a4f28419497f9722a3daafe3b4186f6b6457e091a3600080546001600160a01b0383166001600160a01b031990911617905550565b6000818152600160205260409020805460609190611790906134c7565b80601f01602080910402602001604051908101604052809291908181526020018280546117bc906134c7565b80156118095780601f106117de57610100808354040283529160200191611809565b820191906000526020600020905b8154815290600101906020018083116117ec57829003601f168201915b50505050509050919050565b604080516001600160e01b03198316602480830191909152825180830390910181526044909101909152602080820180517bffffffffffffffffffffffffffffffffffffffffffffffffffffffff166301ffc9a760e01b178152825160009392849283928392918391908a617530fa92503d9150600051905082801561189c575060208210155b80156118a85750600081115b979650505050505050565b604080517fffffffffffffffffffff00000000000000000000000000000000000000000000841660208201526000602a82018190526bffffffffffffffffffffffff198416602c83015291829101604051602081830303815290604052905080610cd3906134fb565b600080806119547fcee78b4094da86011096000000000000000000000000000000000000000000006001600160e01b031986166118b3565b9050600061196182611773565b905060148151101561197a575060009485945092505050565b80516015036119fb57806014815181106119965761199661345a565b01602001517fff00000000000000000000000000000000000000000000000000000000000000167f0100000000000000000000000000000000000000000000000000000000000000036119fb576119ec8161329f565b60601c95600195509350505050565b611a048161329f565b60601c95600095509350505050565b60006001600160e01b031982167fa918fa6b00000000000000000000000000000000000000000000000000000000148061091757506109178261239f565b600080611a646301ffc9a760e01b61191c565b5090506001600160a01b038116611a7e5750600092915050565b611a888184611815565b9392505050565b6000808251604103611ac55760208301516040840151606085015160001a611ab9878285856123dd565b94509450505050611acd565b506000905060025b9250929050565b606083518551141580611af5575082518451141580611af557508151835114155b15611b2c576040517f3ff55f4d00000000000000000000000000000000000000000000000000000000815260040160405180910390fd5b8451600003611b67576040517fe9ad2b5f00000000000000000000000000000000000000000000000000000000815260040160405180910390fd5b6000855167ffffffffffffffff811115611b8357611b83612d18565b604051908082528060200260200182016040528015611bb657816020015b6060815260200190600190039081611ba15790505b50905060005b8651811015611c5a57611c35878281518110611bda57611bda61345a565b6020026020010151878381518110611bf457611bf461345a565b6020026020010151878481518110611c0e57611c0e61345a565b6020026020010151878581518110611c2857611c2861345a565b6020026020010151611f66565b828281518110611c4757611c4761345a565b6020908102919091010152600101611bbc565b5095945050505050565b6000816001600160a01b03163b600003611cb5576040517f0c3923010000000000000000000000000000000000000000000000000000000081526001600160a01b0383166004820152602401610861565b6040517fde928f140000000000000000000000000000000000000000000000000000000081526001600160a01b0383169063de928f1490611d05903390309082903490600090369060040161351f565b6020604051808303816000875af1925050508015611d40575060408051601f3d908101601f19168201909252611d3d9181019061357c565b60015b611d7f573d808015611d6e576040519150601f19603f3d011682016040523d82523d6000602084013e611d73565b606091505b506115536000826124a1565b7fffffff000000000000000000000000000000000000000000000000000000000081167fde928f000000000000000000000000000000000000000000000000000000000014611df457604051639d6741e360e01b8152600060048201526001600160e01b031982166024820152604401610861565b8060031a60f81b7effffffffffffffffffffffffffffffffffffffffffffffffffffffffffffff1916600160f81b14915050919050565b919050565b816001600160a01b031663d3fc45d333303334600036604051602001611e5b96959493929190613599565b60405160208183030381529060405280519060200120836040518363ffffffff1660e01b8152600401611e8f9291906133e8565b6020604051808303816000875af1925050508015611eca575060408051601f3d908101601f19168201909252611ec79181019061357c565b60015b611f09573d808015611ef8576040519150601f19603f3d011682016040523d82523d6000602084013e611efd565b606091505b5061106c6001826124a1565b6001600160e01b031981167fd3fc45d3000000000000000000000000000000000000000000000000000000001461106c57604051639d6741e360e01b8152600160048201526001600160e01b031982166024820152604401610861565b606084611f7f57611f788484846124e7565b9050610cd3565b60018503611fb9576001600160a01b03841615611faf57604051631820c12560e11b815260040160405180910390fd5b611f788383612613565b60028503611ff3576001600160a01b03841615611fe957604051631820c12560e11b815260040160405180910390fd5b611f78838361272d565b6003850361203d578215612033576040517f72f2bc6a00000000000000000000000000000000000000000000000000000000815260040160405180910390fd5b611f788483612817565b6004850361208757821561207d576040517f5ac8313500000000000000000000000000000000000000000000000000000000815260040160405180910390fd5b611f788483612916565b6040517f7583b3bc00000000000000000000000000000000000000000000000000000000815260048101869052602401610861565b60025443906000906120d09060c8906135ff565b905060006120df60c8836135ff565b9050808311806120ef5750600254155b15612137576002839055600380546001600160a01b03191690556040517f81b7f830f1f0084db6497c486cbe6974c86488dcc4e3738eab94ab6d6b1653e790600090a1505050565b8183101561217b576040517f1b0809420000000000000000000000000000000000000000000000000000000081526004810183905260248101829052604401610861565b6121856000611705565b60006002819055600380546001600160a01b03191690556040517fd1f66c3d2bc1993a86be5e3d33709d98f0442381befcedd29f578b9b2506b1ce9190a1505050565b6121e26001600160a01b038416631aed5a8560e21b611815565b1561106c57604051631aed5a8560e21b81526001600160a01b03841690636bb56a149061221590859085906004016133e8565b6000604051808303816000875af1158015612234573d6000803e3d6000fd5b505050506040513d6000823e601f3d908101601f191682016040526112d59190810190613309565b6003546001600160a01b031633146122a2576040517f451e4528000000000000000000000000000000000000000000000000000000008152336004820152602401610861565b6122ab33611705565b600380546001600160a01b03191690556000600255565b60008281526001602052604090206122da8282613660565b50817fece574603820d07bc9b91f2a932baadf4628aabcb8afba49776529c14a6104b26101008351111561231b576123168360006101006129c2565b61231d565b825b60405161232a9190613154565b60405180910390a25050565b306001600160a01b03821603612378576040517fe052a6f800000000000000000000000000000000000000000000000000000000815260040160405180910390fd5b600380546001600160a01b0319166001600160a01b03929092169190911790556000600255565b60006001600160e01b031982167f629aa694000000000000000000000000000000000000000000000000000000001480610917575061091782612aea565b6000807f7fffffffffffffffffffffffffffffff5d576e7357a4501ddfe92f46681b20a08311156124145750600090506003612498565b6040805160008082526020820180845289905260ff881692820192909252606081018690526080810185905260019060a0016020604051602081039080840390855afa158015612468573d6000803e3d6000fd5b5050604051601f1901519150506001600160a01b03811661249157600060019250925050612498565b9150600090505b94509492505050565b8051156124b15780518082602001fd5b6040517f8c6a8ae30000000000000000000000000000000000000000000000000000000081528215156004820152602401610861565b606082471015612513576040516301bf351f60e31b815247600482015260248101849052604401610861565b826001600160a01b03851660007f4810874456b8e6487bd861375cf6abd8e1c8bb5858c8ce36a86a04dabfac199e61254a86613720565b6040516001600160e01b0319909116815260200160405180910390a4600080856001600160a01b0316858560405161258291906133cc565b60006040518083038185875af1925050503d80600081146125bf576040519150601f19603f3d011682016040523d82523d6000602084013e6125c4565b606091505b509150915061260982826040518060400160405280601681526020017f455243373235583a20556e6b6e6f776e204572726f7200000000000000000000815250612b38565b9695505050505050565b60608247101561263f576040516301bf351f60e31b815247600482015260248101849052604401610861565b81516000036126615760405163b81cd8d960e01b815260040160405180910390fd5b600082516020840185f090506001600160a01b0381166126ad576040517f0b07489b00000000000000000000000000000000000000000000000000000000815260040160405180910390fd5b83816001600160a01b031660017fa1fb700aaee2ae4a2ff6f91ce7eba292f89c2f5488b8ec4c5c5c8150692595c36000801b6040516126ee91815260200190565b60405180910390a46040516bffffffffffffffffffffffff19606083901b16602082015260340160405160208183030381529060405291505092915050565b606081516000036127515760405163b81cd8d960e01b815260040160405180910390fd5b600061276a83602085516127659190613754565b612b51565b90506000612787846000602087516127829190613754565b6129c2565b90506000612796868484612bb7565b905085816001600160a01b031660027fa1fb700aaee2ae4a2ff6f91ce7eba292f89c2f5488b8ec4c5c5c8150692595c3866040516127d691815260200190565b60405180910390a46040516bffffffffffffffffffffffff19606083901b166020820152603401604051602081830303815290604052935050505092915050565b606060006001600160a01b03841660037f4810874456b8e6487bd861375cf6abd8e1c8bb5858c8ce36a86a04dabfac199e61285186613720565b6040516001600160e01b0319909116815260200160405180910390a4600080846001600160a01b03168460405161288891906133cc565b600060405180830381855afa9150503d80600081146128c3576040519150601f19603f3d011682016040523d82523d6000602084013e6128c8565b606091505b509150915061290d82826040518060400160405280601681526020017f455243373235583a20556e6b6e6f776e204572726f7200000000000000000000815250612b38565b95945050505050565b606060006001600160a01b03841660047f4810874456b8e6487bd861375cf6abd8e1c8bb5858c8ce36a86a04dabfac199e61295086613720565b6040516001600160e01b0319909116815260200160405180910390a4600080846001600160a01b03168460405161298791906133cc565b600060405180830381855af49150503d80600081146128c3576040519150601f19603f3d011682016040523d82523d6000602084013e6128c8565b6060816129d081601f6135ff565b1015612a1e5760405162461bcd60e51b815260206004820152600e60248201527f736c6963655f6f766572666c6f770000000000000000000000000000000000006044820152606401610861565b612a2882846135ff565b84511015612a785760405162461bcd60e51b815260206004820152601160248201527f736c6963655f6f75744f66426f756e64730000000000000000000000000000006044820152606401610861565b606082158015612a975760405191506000825260208201604052612ae1565b6040519150601f8416801560200281840101858101878315602002848b0101015b81831015612ad0578051835260209283019201612ab8565b5050858452601f01601f1916604052505b50949350505050565b60006001600160e01b031982167f7545acac00000000000000000000000000000000000000000000000000000000148061091757506301ffc9a760e01b6001600160e01b0319831614610917565b60608315612b47575081611a88565b611a888383612cbb565b6000612b5e8260206135ff565b83511015612bae5760405162461bcd60e51b815260206004820152601560248201527f746f427974657333325f6f75744f66426f756e647300000000000000000000006044820152606401610861565b50016020015190565b600083471015612c095760405162461bcd60e51b815260206004820152601d60248201527f437265617465323a20696e73756666696369656e742062616c616e63650000006044820152606401610861565b8151600003612c5a5760405162461bcd60e51b815260206004820181905260248201527f437265617465323a2062797465636f6465206c656e677468206973207a65726f6044820152606401610861565b8282516020840186f590506001600160a01b038116611a885760405162461bcd60e51b815260206004820152601960248201527f437265617465323a204661696c6564206f6e206465706c6f79000000000000006044820152606401610861565b815115612ccb5781518083602001fd5b8060405162461bcd60e51b81526004016108619190613154565b6001600160e01b03198116811461106f57600080fd5b600060208284031215612d0d57600080fd5b8135611a8881612ce5565b634e487b7160e01b600052604160045260246000fd5b604051601f8201601f1916810167ffffffffffffffff81118282101715612d5757612d57612d18565b604052919050565b600067ffffffffffffffff821115612d7957612d79612d18565b50601f01601f191660200190565b600082601f830112612d9857600080fd5b8135612dab612da682612d5f565b612d2e565b818152846020838601011115612dc057600080fd5b816020850160208301376000918101602001919091529392505050565b60008060408385031215612df057600080fd5b82359150602083013567ffffffffffffffff811115612e0e57600080fd5b612e1a85828601612d87565b9150509250929050565b600067ffffffffffffffff821115612e3e57612e3e612d18565b5060051b60200190565b600082601f830112612e5957600080fd5b81356020612e69612da683612e24565b82815260059290921b84018101918181019086841115612e8857600080fd5b8286015b84811015612ea35780358352918301918301612e8c565b509695505050505050565b80356001600160a01b0381168114611e2b57600080fd5b600082601f830112612ed657600080fd5b81356020612ee6612da683612e24565b82815260059290921b84018101918181019086841115612f0557600080fd5b8286015b84811015612ea357803567ffffffffffffffff811115612f295760008081fd5b612f378986838b0101612d87565b845250918301918301612f09565b60008060008060808587031215612f5b57600080fd5b843567ffffffffffffffff80821115612f7357600080fd5b612f7f88838901612e48565b9550602091508187013581811115612f9657600080fd5b8701601f81018913612fa757600080fd5b8035612fb5612da682612e24565b81815260059190911b8201840190848101908b831115612fd457600080fd5b928501925b82841015612ff957612fea84612eae565b82529285019290850190612fd9565b9750505050604087013591508082111561301257600080fd5b61301e88838901612e48565b9350606087013591508082111561303457600080fd5b5061304187828801612ec5565b91505092959194509250565b60005b83811015613068578181015183820152602001613050565b50506000910152565b6000815180845261308981602086016020860161304d565b601f01601f19169290920160200192915050565b6000602080830181845280855180835260408601915060408160051b870101925083870160005b828110156130f257603f198886030184526130e0858351613071565b945092850192908501906001016130c4565b5092979650505050505050565b6000806000806080858703121561311557600080fd5b8435935061312560208601612eae565b925060408501359150606085013567ffffffffffffffff81111561314857600080fd5b61304187828801612d87565b602081526000611a886020830184613071565b60006020828403121561317957600080fd5b5035919050565b6000806020838503121561319357600080fd5b823567ffffffffffffffff808211156131ab57600080fd5b818501915085601f8301126131bf57600080fd5b8135818111156131ce57600080fd5b8660208260051b85010111156131e357600080fd5b60209290920196919550909350505050565b6000806040838503121561320857600080fd5b823567ffffffffffffffff8082111561322057600080fd5b61322c86838701612e48565b9350602085013591508082111561324257600080fd5b50612e1a85828601612ec5565b60006020828403121561326157600080fd5b813567ffffffffffffffff81111561327857600080fd5b610cd384828501612e48565b60006020828403121561329657600080fd5b611a8882612eae565b805160208201516bffffffffffffffffffffffff1980821692919060148310156132d35780818460140360031b1b83161693505b505050919050565b6001600160a01b03851681528360208201528260408201526080606082015260006126096080830184613071565b60006020828403121561331b57600080fd5b815167ffffffffffffffff81111561333257600080fd5b8201601f8101841361334357600080fd5b8051613351612da682612d5f565b81815285602083850101111561336657600080fd5b61290d82602083016020860161304d565b60408152600061338a6040830185613071565b828103602084015261290d8185613071565b8385823760609290921b6bffffffffffffffffffffffff1916919092019081526014810191909152603401919050565b600082516133de81846020870161304d565b9190910192915050565b828152604060208201526000610cd36040830184613071565b60006020828403121561341357600080fd5b5051919050565b634e487b7160e01b600052602160045260246000fd5b6040815260006134436040830184613071565b828103602093840152600081529190910192915050565b634e487b7160e01b600052603260045260246000fd5b6000808335601e1984360301811261348757600080fd5b83018035915067ffffffffffffffff8211156134a257600080fd5b602001915036819003821315611acd57600080fd5b8183823760009101908152919050565b600181811c908216806134db57607f821691505b60208210810361155357634e487b7160e01b600052602260045260246000fd5b805160208083015191908110156115535760001960209190910360031b1b16919050565b60006001600160a01b038089168352808816602084015280871660408401525084606083015260a060808301528260a0830152828460c0840137600060c0848401015260c0601f19601f8501168301019050979650505050505050565b60006020828403121561358e57600080fd5b8151611a8881612ce5565b60006bffffffffffffffffffffffff19808960601b168352808860601b166014840152808760601b1660288401525084603c8301528284605c8401375060009101605c0190815295945050505050565b634e487b7160e01b600052601160045260246000fd5b80820180821115610917576109176135e9565b601f82111561106c57600081815260208120601f850160051c810160208610156136395750805b601f850160051c820191505b8181101561365857828155600101613645565b505050505050565b815167ffffffffffffffff81111561367a5761367a612d18565b61368e8161368884546134c7565b84613612565b602080601f8311600181146136c357600084156136ab5750858301515b600019600386901b1c1916600185901b178555613658565b600085815260208120601f198616915b828110156136f2578886015182559484019460019091019084016136d3565b50858210156137105787850151600019600388901b60f8161c191681555b5050505050600190811b01905550565b6000815160208301516001600160e01b0319808216935060048310156132d35760049290920360031b82901b161692915050565b81810381811115610917576109176135e956fea2646970667358221220436d9ce3d18131e4e6100734997a45329aa4c812566a35309a58a9f701eb2b3b64736f6c63430008110033",
  "linkReferences": {},
  "deployedLinkReferences": {}
}